{
  "_format": "hh-sol-artifact-1",
  "contractName": "MyNFT",
  "sourceName": "contracts/MyNFT.sol",
  "abi": [
    {
      "inputs": [],
      "stateMutability": "nonpayable",
      "type": "constructor"
    },
    {
      "anonymous": false,
      "inputs": [
        {
          "indexed": true,
          "internalType": "address",
          "name": "owner",
          "type": "address"
        },
        {
          "indexed": true,
          "internalType": "address",
          "name": "approved",
          "type": "address"
        },
        {
          "indexed": true,
          "internalType": "uint256",
          "name": "tokenId",
          "type": "uint256"
        }
      ],
      "name": "Approval",
      "type": "event"
    },
    {
      "anonymous": false,
      "inputs": [
        {
          "indexed": true,
          "internalType": "address",
          "name": "owner",
          "type": "address"
        },
        {
          "indexed": true,
          "internalType": "address",
          "name": "operator",
          "type": "address"
        },
        {
          "indexed": false,
          "internalType": "bool",
          "name": "approved",
          "type": "bool"
        }
      ],
      "name": "ApprovalForAll",
      "type": "event"
    },
    {
      "anonymous": false,
      "inputs": [
        {
          "indexed": true,
          "internalType": "address",
          "name": "from",
          "type": "address"
        },
        {
          "indexed": true,
          "internalType": "address",
          "name": "to",
          "type": "address"
        },
        {
          "indexed": true,
          "internalType": "uint256",
          "name": "tokenId",
          "type": "uint256"
        }
      ],
      "name": "Transfer",
      "type": "event"
    },
    {
      "inputs": [
        {
          "internalType": "address",
          "name": "to",
          "type": "address"
        },
        {
          "internalType": "uint256",
          "name": "tokenId",
          "type": "uint256"
        }
      ],
      "name": "approve",
      "outputs": [],
      "stateMutability": "nonpayable",
      "type": "function"
    },
    {
      "inputs": [
        {
          "internalType": "address",
          "name": "owner",
          "type": "address"
        }
      ],
      "name": "balanceOf",
      "outputs": [
        {
          "internalType": "uint256",
          "name": "",
          "type": "uint256"
        }
      ],
      "stateMutability": "view",
      "type": "function"
    },
    {
      "inputs": [
        {
          "internalType": "uint256",
          "name": "tokenId",
          "type": "uint256"
        }
      ],
      "name": "getApproved",
      "outputs": [
        {
          "internalType": "address",
          "name": "",
          "type": "address"
        }
      ],
      "stateMutability": "view",
      "type": "function"
    },
    {
      "inputs": [
        {
          "internalType": "address",
          "name": "owner",
          "type": "address"
        },
        {
          "internalType": "address",
          "name": "operator",
          "type": "address"
        }
      ],
      "name": "isApprovedForAll",
      "outputs": [
        {
          "internalType": "bool",
          "name": "",
          "type": "bool"
        }
      ],
      "stateMutability": "view",
      "type": "function"
    },
    {
      "inputs": [
        {
          "internalType": "address",
          "name": "recipient",
          "type": "address"
        },
        {
          "internalType": "string",
          "name": "tokenURI",
          "type": "string"
        }
      ],
      "name": "mintNFT",
      "outputs": [
        {
          "internalType": "uint256",
          "name": "",
          "type": "uint256"
        }
      ],
      "stateMutability": "nonpayable",
      "type": "function"
    },
    {
      "inputs": [],
      "name": "name",
      "outputs": [
        {
          "internalType": "string",
          "name": "",
          "type": "string"
        }
      ],
      "stateMutability": "view",
      "type": "function"
    },
    {
      "inputs": [
        {
          "internalType": "uint256",
          "name": "tokenId",
          "type": "uint256"
        }
      ],
      "name": "ownerOf",
      "outputs": [
        {
          "internalType": "address",
          "name": "",
          "type": "address"
        }
      ],
      "stateMutability": "view",
      "type": "function"
    },
    {
      "inputs": [
        {
          "internalType": "address",
          "name": "from",
          "type": "address"
        },
        {
          "internalType": "address",
          "name": "to",
          "type": "address"
        },
        {
          "internalType": "uint256",
          "name": "tokenId",
          "type": "uint256"
        }
      ],
      "name": "safeTransferFrom",
      "outputs": [],
      "stateMutability": "nonpayable",
      "type": "function"
    },
    {
      "inputs": [
        {
          "internalType": "address",
          "name": "from",
          "type": "address"
        },
        {
          "internalType": "address",
          "name": "to",
          "type": "address"
        },
        {
          "internalType": "uint256",
          "name": "tokenId",
          "type": "uint256"
        },
        {
          "internalType": "bytes",
          "name": "data",
          "type": "bytes"
        }
      ],
      "name": "safeTransferFrom",
      "outputs": [],
      "stateMutability": "nonpayable",
      "type": "function"
    },
    {
      "inputs": [
        {
          "internalType": "address",
          "name": "operator",
          "type": "address"
        },
        {
          "internalType": "bool",
          "name": "approved",
          "type": "bool"
        }
      ],
      "name": "setApprovalForAll",
      "outputs": [],
      "stateMutability": "nonpayable",
      "type": "function"
    },
    {
      "inputs": [
        {
          "internalType": "bytes4",
          "name": "interfaceId",
          "type": "bytes4"
        }
      ],
      "name": "supportsInterface",
      "outputs": [
        {
          "internalType": "bool",
          "name": "",
          "type": "bool"
        }
      ],
      "stateMutability": "view",
      "type": "function"
    },
    {
      "inputs": [],
      "name": "symbol",
      "outputs": [
        {
          "internalType": "string",
          "name": "",
          "type": "string"
        }
      ],
      "stateMutability": "view",
      "type": "function"
    },
    {
      "inputs": [
        {
          "internalType": "uint256",
          "name": "tokenId",
          "type": "uint256"
        }
      ],
      "name": "tokenURI",
      "outputs": [
        {
          "internalType": "string",
          "name": "",
          "type": "string"
        }
      ],
      "stateMutability": "view",
      "type": "function"
    },
    {
      "inputs": [
        {
          "internalType": "address",
          "name": "from",
          "type": "address"
        },
        {
          "internalType": "address",
          "name": "to",
          "type": "address"
        },
        {
          "internalType": "uint256",
          "name": "tokenId",
          "type": "uint256"
        }
      ],
      "name": "transferFrom",
      "outputs": [],
      "stateMutability": "nonpayable",
      "type": "function"
    }
  ],
  "bytecode": "0x60806040523480156200001157600080fd5b506040518060400160405280600581526020017f4d794e46540000000000000000000000000000000000000000000000000000008152506040518060400160405280600381526020017f4e46540000000000000000000000000000000000000000000000000000000000815250816000908051906020019062000096929190620000b8565b508060019080519060200190620000af929190620000b8565b505050620001cd565b828054620000c69062000168565b90600052602060002090601f016020900481019282620000ea576000855562000136565b82601f106200010557805160ff191683800117855562000136565b8280016001018555821562000136579182015b828111156200013557825182559160200191906001019062000118565b5b50905062000145919062000149565b5090565b5b80821115620001645760008160009055506001016200014a565b5090565b600060028204905060018216806200018157607f821691505b602082108114156200019857620001976200019e565b5b50919050565b7f4e487b7100000000000000000000000000000000000000000000000000000000600052602260045260246000fd5b61287b80620001dd6000396000f3fe608060405234801561001057600080fd5b50600436106100ea5760003560e01c806370a082311161008c578063b88d4fde11610066578063b88d4fde1461025b578063c87b56dd14610277578063e985e9c5146102a7578063eacabe14146102d7576100ea565b806370a08231146101f157806395d89b4114610221578063a22cb4651461023f576100ea565b8063095ea7b3116100c8578063095ea7b31461016d57806323b872dd1461018957806342842e0e146101a55780636352211e146101c1576100ea565b806301ffc9a7146100ef57806306fdde031461011f578063081812fc1461013d575b600080fd5b61010960048036038101906101049190611b96565b610307565b6040516101169190611f10565b60405180910390f35b6101276103e9565b6040516101349190611f2b565b60405180910390f35b61015760048036038101906101529190611be8565b61047b565b6040516101649190611ea9565b60405180910390f35b61018760048036038101906101829190611b5a565b6104c1565b005b6101a3600480360381019061019e9190611a00565b6105d9565b005b6101bf60048036038101906101ba9190611a00565b610639565b005b6101db60048036038101906101d69190611be8565b610659565b6040516101e89190611ea9565b60405180910390f35b61020b6004803603810190610206919061199b565b61070b565b60405161021891906120cd565b60405180910390f35b6102296107c3565b6040516102369190611f2b565b60405180910390f35b61025960048036038101906102549190611aca565b610855565b005b61027560048036038101906102709190611a4f565b61086b565b005b610291600480360381019061028c9190611be8565b6108cd565b60405161029e9190611f2b565b60405180910390f35b6102c160048036038101906102bc91906119c4565b6109e0565b6040516102ce9190611f10565b60405180910390f35b6102f160048036038101906102ec9190611b06565b610a74565b6040516102fe91906120cd565b60405180910390f35b60007f80ac58cd000000000000000000000000000000000000000000000000000000007bffffffffffffffffffffffffffffffffffffffffffffffffffffffff1916827bffffffffffffffffffffffffffffffffffffffffffffffffffffffff191614806103d257507f5b5e139f000000000000000000000000000000000000000000000000000000007bffffffffffffffffffffffffffffffffffffffffffffffffffffffff1916827bffffffffffffffffffffffffffffffffffffffffffffffffffffffff1916145b806103e257506103e182610ab6565b5b9050919050565b6060600080546103f890612323565b80601f016020809104026020016040519081016040528092919081815260200182805461042490612323565b80156104715780601f1061044657610100808354040283529160200191610471565b820191906000526020600020905b81548152906001019060200180831161045457829003601f168201915b5050505050905090565b600061048682610b20565b6004600083815260200190815260200160002060009054906101000a900473ffffffffffffffffffffffffffffffffffffffff169050919050565b60006104cc82610659565b90508073ffffffffffffffffffffffffffffffffffffffff168373ffffffffffffffffffffffffffffffffffffffff16141561053d576040517f08c379a00000000000000000000000000000000000000000000000000000000081526004016105349061208d565b60405180910390fd5b8073ffffffffffffffffffffffffffffffffffffffff1661055c610b6b565b73ffffffffffffffffffffffffffffffffffffffff16148061058b575061058a81610585610b6b565b6109e0565b5b6105ca576040517f08c379a00000000000000000000000000000000000000000000000000000000081526004016105c19061202d565b60405180910390fd5b6105d48383610b73565b505050565b6105ea6105e4610b6b565b82610c2c565b610629576040517f08c379a0000000000000000000000000000000000000000000000000000000008152600401610620906120ad565b60405180910390fd5b610634838383610cc1565b505050565b6106548383836040518060200160405280600081525061086b565b505050565b6000806002600084815260200190815260200160002060009054906101000a900473ffffffffffffffffffffffffffffffffffffffff169050600073ffffffffffffffffffffffffffffffffffffffff168173ffffffffffffffffffffffffffffffffffffffff161415610702576040517f08c379a00000000000000000000000000000000000000000000000000000000081526004016106f99061206d565b60405180910390fd5b80915050919050565b60008073ffffffffffffffffffffffffffffffffffffffff168273ffffffffffffffffffffffffffffffffffffffff16141561077c576040517f08c379a000000000000000000000000000000000000000000000000000000000815260040161077390611fed565b60405180910390fd5b600360008373ffffffffffffffffffffffffffffffffffffffff1673ffffffffffffffffffffffffffffffffffffffff168152602001908152602001600020549050919050565b6060600180546107d290612323565b80601f01602080910402602001604051908101604052809291908181526020018280546107fe90612323565b801561084b5780601f106108205761010080835404028352916020019161084b565b820191906000526020600020905b81548152906001019060200180831161082e57829003601f168201915b5050505050905090565b610867610860610b6b565b8383610f28565b5050565b61087c610876610b6b565b83610c2c565b6108bb576040517f08c379a00000000000000000000000000000000000000000000000000000000081526004016108b2906120ad565b60405180910390fd5b6108c784848484611095565b50505050565b60606108d882610b20565b60006006600084815260200190815260200160002080546108f890612323565b80601f016020809104026020016040519081016040528092919081815260200182805461092490612323565b80156109715780601f1061094657610100808354040283529160200191610971565b820191906000526020600020905b81548152906001019060200180831161095457829003601f168201915b5050505050905060006109826110f1565b90506000815114156109985781925050506109db565b6000825111156109cd5780826040516020016109b5929190611e85565b604051602081830303815290604052925050506109db565b6109d684611108565b925050505b919050565b6000600560008473ffffffffffffffffffffffffffffffffffffffff1673ffffffffffffffffffffffffffffffffffffffff16815260200190815260200160002060008373ffffffffffffffffffffffffffffffffffffffff1673ffffffffffffffffffffffffffffffffffffffff16815260200190815260200160002060009054906101000a900460ff16905092915050565b6000610a806007611170565b6000610a8c6007611186565b9050610a988482611194565b610aa2818461136e565b610aac8482610b73565b8091505092915050565b60007f01ffc9a7000000000000000000000000000000000000000000000000000000007bffffffffffffffffffffffffffffffffffffffffffffffffffffffff1916827bffffffffffffffffffffffffffffffffffffffffffffffffffffffff1916149050919050565b610b29816113e2565b610b68576040517f08c379a0000000000000000000000000000000000000000000000000000000008152600401610b5f9061206d565b60405180910390fd5b50565b600033905090565b816004600083815260200190815260200160002060006101000a81548173ffffffffffffffffffffffffffffffffffffffff021916908373ffffffffffffffffffffffffffffffffffffffff160217905550808273ffffffffffffffffffffffffffffffffffffffff16610be683610659565b73ffffffffffffffffffffffffffffffffffffffff167f8c5be1e5ebec7d5bd14f71427d1e84f3dd0314c0f7b2291e5b200ac8c7c3b92560405160405180910390a45050565b600080610c3883610659565b90508073ffffffffffffffffffffffffffffffffffffffff168473ffffffffffffffffffffffffffffffffffffffff161480610c7a5750610c7981856109e0565b5b80610cb857508373ffffffffffffffffffffffffffffffffffffffff16610ca08461047b565b73ffffffffffffffffffffffffffffffffffffffff16145b91505092915050565b8273ffffffffffffffffffffffffffffffffffffffff16610ce182610659565b73ffffffffffffffffffffffffffffffffffffffff1614610d37576040517f08c379a0000000000000000000000000000000000000000000000000000000008152600401610d2e90611f6d565b60405180910390fd5b600073ffffffffffffffffffffffffffffffffffffffff168273ffffffffffffffffffffffffffffffffffffffff161415610da7576040517f08c379a0000000000000000000000000000000000000000000000000000000008152600401610d9e90611fad565b60405180910390fd5b610db283838361144e565b610dbd600082610b73565b6001600360008573ffffffffffffffffffffffffffffffffffffffff1673ffffffffffffffffffffffffffffffffffffffff1681526020019081526020016000206000828254610e0d9190612239565b925050819055506001600360008473ffffffffffffffffffffffffffffffffffffffff1673ffffffffffffffffffffffffffffffffffffffff1681526020019081526020016000206000828254610e6491906121b2565b92505081905550816002600083815260200190815260200160002060006101000a81548173ffffffffffffffffffffffffffffffffffffffff021916908373ffffffffffffffffffffffffffffffffffffffff160217905550808273ffffffffffffffffffffffffffffffffffffffff168473ffffffffffffffffffffffffffffffffffffffff167fddf252ad1be2c89b69c2b068fc378daa952ba7f163c4a11628f55a4df523b3ef60405160405180910390a4610f23838383611453565b505050565b8173ffffffffffffffffffffffffffffffffffffffff168373ffffffffffffffffffffffffffffffffffffffff161415610f97576040517f08c379a0000000000000000000000000000000000000000000000000000000008152600401610f8e90611fcd565b60405180910390fd5b80600560008573ffffffffffffffffffffffffffffffffffffffff1673ffffffffffffffffffffffffffffffffffffffff16815260200190815260200160002060008473ffffffffffffffffffffffffffffffffffffffff1673ffffffffffffffffffffffffffffffffffffffff16815260200190815260200160002060006101000a81548160ff0219169083151502179055508173ffffffffffffffffffffffffffffffffffffffff168373ffffffffffffffffffffffffffffffffffffffff167f17307eab39ab6107e8899845ad3d59bd9653f200f220920489ca2b5937696c31836040516110889190611f10565b60405180910390a3505050565b6110a0848484610cc1565b6110ac84848484611458565b6110eb576040517f08c379a00000000000000000000000000000000000000000000000000000000081526004016110e290611f4d565b60405180910390fd5b50505050565b606060405180602001604052806000815250905090565b606061111382610b20565b600061111d6110f1565b9050600081511161113d5760405180602001604052806000815250611168565b80611147846115ef565b604051602001611158929190611e85565b6040516020818303038152906040525b915050919050565b6001816000016000828254019250508190555050565b600081600001549050919050565b600073ffffffffffffffffffffffffffffffffffffffff168273ffffffffffffffffffffffffffffffffffffffff161415611204576040517f08c379a00000000000000000000000000000000000000000000000000000000081526004016111fb9061204d565b60405180910390fd5b61120d816113e2565b1561124d576040517f08c379a000000000000000000000000000000000000000000000000000000000815260040161124490611f8d565b60405180910390fd5b6112596000838361144e565b6001600360008473ffffffffffffffffffffffffffffffffffffffff1673ffffffffffffffffffffffffffffffffffffffff16815260200190815260200160002060008282546112a991906121b2565b92505081905550816002600083815260200190815260200160002060006101000a81548173ffffffffffffffffffffffffffffffffffffffff021916908373ffffffffffffffffffffffffffffffffffffffff160217905550808273ffffffffffffffffffffffffffffffffffffffff16600073ffffffffffffffffffffffffffffffffffffffff167fddf252ad1be2c89b69c2b068fc378daa952ba7f163c4a11628f55a4df523b3ef60405160405180910390a461136a60008383611453565b5050565b611377826113e2565b6113b6576040517f08c379a00000000000000000000000000000000000000000000000000000000081526004016113ad9061200d565b60405180910390fd5b806006600084815260200190815260200160002090805190602001906113dd9291906117bf565b505050565b60008073ffffffffffffffffffffffffffffffffffffffff166002600084815260200190815260200160002060009054906101000a900473ffffffffffffffffffffffffffffffffffffffff1673ffffffffffffffffffffffffffffffffffffffff1614159050919050565b505050565b505050565b60006114798473ffffffffffffffffffffffffffffffffffffffff1661179c565b156115e2578373ffffffffffffffffffffffffffffffffffffffff1663150b7a026114a2610b6b565b8786866040518563ffffffff1660e01b81526004016114c49493929190611ec4565b602060405180830381600087803b1580156114de57600080fd5b505af192505050801561150f57506040513d601f19601f8201168201806040525081019061150c9190611bbf565b60015b611592573d806000811461153f576040519150601f19603f3d011682016040523d82523d6000602084013e611544565b606091505b5060008151141561158a576040517f08c379a000000000000000000000000000000000000000000000000000000000815260040161158190611f4d565b60405180910390fd5b805181602001fd5b63150b7a0260e01b7bffffffffffffffffffffffffffffffffffffffffffffffffffffffff1916817bffffffffffffffffffffffffffffffffffffffffffffffffffffffff1916149150506115e7565b600190505b949350505050565b60606000821415611637576040518060400160405280600181526020017f30000000000000000000000000000000000000000000000000000000000000008152509050611797565b600082905060005b6000821461166957808061165290612386565b915050600a826116629190612208565b915061163f565b60008167ffffffffffffffff8111156116ab577f4e487b7100000000000000000000000000000000000000000000000000000000600052604160045260246000fd5b6040519080825280601f01601f1916602001820160405280156116dd5781602001600182028036833780820191505090505b5090505b60008514611790576001826116f69190612239565b9150600a8561170591906123cf565b603061171191906121b2565b60f81b81838151811061174d577f4e487b7100000000000000000000000000000000000000000000000000000000600052603260045260246000fd5b60200101907effffffffffffffffffffffffffffffffffffffffffffffffffffffffffffff1916908160001a905350600a856117899190612208565b94506116e1565b8093505050505b919050565b6000808273ffffffffffffffffffffffffffffffffffffffff163b119050919050565b8280546117cb90612323565b90600052602060002090601f0160209004810192826117ed5760008555611834565b82601f1061180657805160ff1916838001178555611834565b82800160010185558215611834579182015b82811115611833578251825591602001919060010190611818565b5b5090506118419190611845565b5090565b5b8082111561185e576000816000905550600101611846565b5090565b60006118756118708461210d565b6120e8565b90508281526020810184848401111561188d57600080fd5b6118988482856122e1565b509392505050565b60006118b36118ae8461213e565b6120e8565b9050828152602081018484840111156118cb57600080fd5b6118d68482856122e1565b509392505050565b6000813590506118ed816127e9565b92915050565b60008135905061190281612800565b92915050565b60008135905061191781612817565b92915050565b60008151905061192c81612817565b92915050565b600082601f83011261194357600080fd5b8135611953848260208601611862565b91505092915050565b600082601f83011261196d57600080fd5b813561197d8482602086016118a0565b91505092915050565b6000813590506119958161282e565b92915050565b6000602082840312156119ad57600080fd5b60006119bb848285016118de565b91505092915050565b600080604083850312156119d757600080fd5b60006119e5858286016118de565b92505060206119f6858286016118de565b9150509250929050565b600080600060608486031215611a1557600080fd5b6000611a23868287016118de565b9350506020611a34868287016118de565b9250506040611a4586828701611986565b9150509250925092565b60008060008060808587031215611a6557600080fd5b6000611a73878288016118de565b9450506020611a84878288016118de565b9350506040611a9587828801611986565b925050606085013567ffffffffffffffff811115611ab257600080fd5b611abe87828801611932565b91505092959194509250565b60008060408385031215611add57600080fd5b6000611aeb858286016118de565b9250506020611afc858286016118f3565b9150509250929050565b60008060408385031215611b1957600080fd5b6000611b27858286016118de565b925050602083013567ffffffffffffffff811115611b4457600080fd5b611b508582860161195c565b9150509250929050565b60008060408385031215611b6d57600080fd5b6000611b7b858286016118de565b9250506020611b8c85828601611986565b9150509250929050565b600060208284031215611ba857600080fd5b6000611bb684828501611908565b91505092915050565b600060208284031215611bd157600080fd5b6000611bdf8482850161191d565b91505092915050565b600060208284031215611bfa57600080fd5b6000611c0884828501611986565b91505092915050565b611c1a8161226d565b82525050565b611c298161227f565b82525050565b6000611c3a8261216f565b611c448185612185565b9350611c548185602086016122f0565b611c5d816124bc565b840191505092915050565b6000611c738261217a565b611c7d8185612196565b9350611c8d8185602086016122f0565b611c96816124bc565b840191505092915050565b6000611cac8261217a565b611cb681856121a7565b9350611cc68185602086016122f0565b80840191505092915050565b6000611cdf603283612196565b9150611cea826124cd565b604082019050919050565b6000611d02602583612196565b9150611d0d8261251c565b604082019050919050565b6000611d25601c83612196565b9150611d308261256b565b602082019050919050565b6000611d48602483612196565b9150611d5382612594565b604082019050919050565b6000611d6b601983612196565b9150611d76826125e3565b602082019050919050565b6000611d8e602983612196565b9150611d998261260c565b604082019050919050565b6000611db1602e83612196565b9150611dbc8261265b565b604082019050919050565b6000611dd4603e83612196565b9150611ddf826126aa565b604082019050919050565b6000611df7602083612196565b9150611e02826126f9565b602082019050919050565b6000611e1a601883612196565b9150611e2582612722565b602082019050919050565b6000611e3d602183612196565b9150611e488261274b565b604082019050919050565b6000611e60602e83612196565b9150611e6b8261279a565b604082019050919050565b611e7f816122d7565b82525050565b6000611e918285611ca1565b9150611e9d8284611ca1565b91508190509392505050565b6000602082019050611ebe6000830184611c11565b92915050565b6000608082019050611ed96000830187611c11565b611ee66020830186611c11565b611ef36040830185611e76565b8181036060830152611f058184611c2f565b905095945050505050565b6000602082019050611f256000830184611c20565b92915050565b60006020820190508181036000830152611f458184611c68565b905092915050565b60006020820190508181036000830152611f6681611cd2565b9050919050565b60006020820190508181036000830152611f8681611cf5565b9050919050565b60006020820190508181036000830152611fa681611d18565b9050919050565b60006020820190508181036000830152611fc681611d3b565b9050919050565b60006020820190508181036000830152611fe681611d5e565b9050919050565b6000602082019050818103600083015261200681611d81565b9050919050565b6000602082019050818103600083015261202681611da4565b9050919050565b6000602082019050818103600083015261204681611dc7565b9050919050565b6000602082019050818103600083015261206681611dea565b9050919050565b6000602082019050818103600083015261208681611e0d565b9050919050565b600060208201905081810360008301526120a681611e30565b9050919050565b600060208201905081810360008301526120c681611e53565b9050919050565b60006020820190506120e26000830184611e76565b92915050565b60006120f2612103565b90506120fe8282612355565b919050565b6000604051905090565b600067ffffffffffffffff8211156121285761212761248d565b5b612131826124bc565b9050602081019050919050565b600067ffffffffffffffff8211156121595761215861248d565b5b612162826124bc565b9050602081019050919050565b600081519050919050565b600081519050919050565b600082825260208201905092915050565b600082825260208201905092915050565b600081905092915050565b60006121bd826122d7565b91506121c8836122d7565b9250827fffffffffffffffffffffffffffffffffffffffffffffffffffffffffffffffff038211156121fd576121fc612400565b5b828201905092915050565b6000612213826122d7565b915061221e836122d7565b92508261222e5761222d61242f565b5b828204905092915050565b6000612244826122d7565b915061224f836122d7565b92508282101561226257612261612400565b5b828203905092915050565b6000612278826122b7565b9050919050565b60008115159050919050565b60007fffffffff0000000000000000000000000000000000000000000000000000000082169050919050565b600073ffffffffffffffffffffffffffffffffffffffff82169050919050565b6000819050919050565b82818337600083830152505050565b60005b8381101561230e5780820151818401526020810190506122f3565b8381111561231d576000848401525b50505050565b6000600282049050600182168061233b57607f821691505b6020821081141561234f5761234e61245e565b5b50919050565b61235e826124bc565b810181811067ffffffffffffffff8211171561237d5761237c61248d565b5b80604052505050565b6000612391826122d7565b91507fffffffffffffffffffffffffffffffffffffffffffffffffffffffffffffffff8214156123c4576123c3612400565b5b600182019050919050565b60006123da826122d7565b91506123e5836122d7565b9250826123f5576123f461242f565b5b828206905092915050565b7f4e487b7100000000000000000000000000000000000000000000000000000000600052601160045260246000fd5b7f4e487b7100000000000000000000000000000000000000000000000000000000600052601260045260246000fd5b7f4e487b7100000000000000000000000000000000000000000000000000000000600052602260045260246000fd5b7f4e487b7100000000000000000000000000000000000000000000000000000000600052604160045260246000fd5b6000601f19601f8301169050919050565b7f4552433732313a207472616e7366657220746f206e6f6e20455243373231526560008201527f63656976657220696d706c656d656e7465720000000000000000000000000000602082015250565b7f4552433732313a207472616e736665722066726f6d20696e636f72726563742060008201527f6f776e6572000000000000000000000000000000000000000000000000000000602082015250565b7f4552433732313a20746f6b656e20616c7265616479206d696e74656400000000600082015250565b7f4552433732313a207472616e7366657220746f20746865207a65726f2061646460008201527f7265737300000000000000000000000000000000000000000000000000000000602082015250565b7f4552433732313a20617070726f766520746f2063616c6c657200000000000000600082015250565b7f4552433732313a2061646472657373207a65726f206973206e6f74206120766160008201527f6c6964206f776e65720000000000000000000000000000000000000000000000602082015250565b7f45524337323155524953746f726167653a2055524920736574206f66206e6f6e60008201527f6578697374656e7420746f6b656e000000000000000000000000000000000000602082015250565b7f4552433732313a20617070726f76652063616c6c6572206973206e6f7420746f60008201527f6b656e206f776e6572206e6f7220617070726f76656420666f7220616c6c0000602082015250565b7f4552433732313a206d696e7420746f20746865207a65726f2061646472657373600082015250565b7f4552433732313a20696e76616c696420746f6b656e2049440000000000000000600082015250565b7f4552433732313a20617070726f76616c20746f2063757272656e74206f776e6560008201527f7200000000000000000000000000000000000000000000000000000000000000602082015250565b7f4552433732313a2063616c6c6572206973206e6f7420746f6b656e206f776e6560008201527f72206e6f7220617070726f766564000000000000000000000000000000000000602082015250565b6127f28161226d565b81146127fd57600080fd5b50565b6128098161227f565b811461281457600080fd5b50565b6128208161228b565b811461282b57600080fd5b50565b612837816122d7565b811461284257600080fd5b5056fea2646970667358221220e97fa18e8d27ef5d95878716944036cd4e1699723ca6e0eabca346b538f6b39164736f6c63430008040033",
  "linkReferences": {},
  "deployedLinkReferences": {}
}